{
  "_format": "hh-sol-artifact-1",
  "contractName": "Medfile",
  "sourceName": "contracts/Medfile.sol",
  "abi": [
    {
      "inputs": [],
      "name": "getPatient",
      "outputs": [
        {
          "components": [
            {
              "internalType": "address",
              "name": "author",
              "type": "address"
            },
            {
              "internalType": "string",
              "name": "pname",
              "type": "string"
            },
            {
              "internalType": "string",
              "name": "report",
              "type": "string"
            },
            {
              "internalType": "string",
              "name": "treatment",
              "type": "string"
            },
            {
              "internalType": "string",
              "name": "ppno",
              "type": "string"
            },
            {
              "internalType": "string",
              "name": "paddress",
              "type": "string"
            }
          ],
          "internalType": "struct Medfile.Patient[]",
          "name": "",
          "type": "tuple[]"
        }
      ],
      "stateMutability": "view",
      "type": "function"
    },
    {
      "inputs": [
        {
          "internalType": "address",
          "name": "_wallet",
          "type": "address"
        }
      ],
      "name": "getUser",
      "outputs": [
        {
          "components": [
            {
              "internalType": "address",
              "name": "wallet",
              "type": "address"
            },
            {
              "internalType": "string",
              "name": "name",
              "type": "string"
            },
            {
              "internalType": "string",
              "name": "userid",
              "type": "string"
            },
            {
              "internalType": "string",
              "name": "post",
              "type": "string"
            },
            {
              "internalType": "string",
              "name": "pno",
              "type": "string"
            }
          ],
          "internalType": "struct Medfile.User",
          "name": "",
          "type": "tuple"
        }
      ],
      "stateMutability": "view",
      "type": "function"
    },
    {
      "inputs": [
        {
          "internalType": "uint256",
          "name": "",
          "type": "uint256"
        }
      ],
      "name": "patients",
      "outputs": [
        {
          "internalType": "address",
          "name": "author",
          "type": "address"
        },
        {
          "internalType": "string",
          "name": "pname",
          "type": "string"
        },
        {
          "internalType": "string",
          "name": "report",
          "type": "string"
        },
        {
          "internalType": "string",
          "name": "treatment",
          "type": "string"
        },
        {
          "internalType": "string",
          "name": "ppno",
          "type": "string"
        },
        {
          "internalType": "string",
          "name": "paddress",
          "type": "string"
        }
      ],
      "stateMutability": "view",
      "type": "function"
    },
    {
      "inputs": [
        {
          "internalType": "string",
          "name": "_pname",
          "type": "string"
        },
        {
          "internalType": "string",
          "name": "_report",
          "type": "string"
        },
        {
          "internalType": "string",
          "name": "_treatment",
          "type": "string"
        },
        {
          "internalType": "string",
          "name": "_ppno",
          "type": "string"
        },
        {
          "internalType": "string",
          "name": "_paddress",
          "type": "string"
        }
      ],
      "name": "postPatient",
      "outputs": [],
      "stateMutability": "nonpayable",
      "type": "function"
    },
    {
      "inputs": [
        {
          "internalType": "string",
          "name": "_userid",
          "type": "string"
        },
        {
          "internalType": "string",
          "name": "_name",
          "type": "string"
        },
        {
          "internalType": "string",
          "name": "_post",
          "type": "string"
        },
        {
          "internalType": "string",
          "name": "_pno",
          "type": "string"
        }
      ],
      "name": "signup",
      "outputs": [],
      "stateMutability": "nonpayable",
      "type": "function"
    },
    {
      "inputs": [
        {
          "internalType": "address",
          "name": "",
          "type": "address"
        }
      ],
      "name": "userids",
      "outputs": [
        {
          "internalType": "string",
          "name": "",
          "type": "string"
        }
      ],
      "stateMutability": "view",
      "type": "function"
    },
    {
      "inputs": [
        {
          "internalType": "string",
          "name": "",
          "type": "string"
        }
      ],
      "name": "users",
      "outputs": [
        {
          "internalType": "address",
          "name": "wallet",
          "type": "address"
        },
        {
          "internalType": "string",
          "name": "name",
          "type": "string"
        },
        {
          "internalType": "string",
          "name": "userid",
          "type": "string"
        },
        {
          "internalType": "string",
          "name": "post",
          "type": "string"
        },
        {
          "internalType": "string",
          "name": "pno",
          "type": "string"
        }
      ],
      "stateMutability": "view",
      "type": "function"
    }
  ],
  "bytecode": "0x608060405234801561001057600080fd5b506126b8806100206000396000f3fe608060405234801561001057600080fd5b506004361061007d5760003560e01c80637b0f9a361161005b5780637b0f9a361461010257806393119a8314610120578063d2a51fdd14610155578063fcf58fa5146101855761007d565b8063056b98c414610082578063689e1c031461009e5780636f77926b146100d2575b600080fd5b61009c6004803603810190610097919061182a565b6101a1565b005b6100b860048036038101906100b39190611726565b6105ef565b6040516100c9959493929190611e0d565b60405180910390f35b6100ec60048036038101906100e791906116fd565b61087b565b6040516100f991906120c4565b60405180910390f35b61010a610b8f565b6040516101179190611f00565b60405180910390f35b61013a60048036038101906101359190611919565b610f1e565b60405161014c96959493929190611e7c565b60405180910390f35b61016f600480360381019061016a91906116fd565b611232565b60405161017c9190611f22565b60405180910390f35b61019f600480360381019061019a9190611767565b6112d2565b005b6000600160003373ffffffffffffffffffffffffffffffffffffffff1673ffffffffffffffffffffffffffffffffffffffff16815260200190815260200160002080546101ed90612240565b90501161022f576040517f08c379a000000000000000000000000000000000000000000000000000000000815260040161022690612064565b60405180910390fd5b6000855111610273576040517f08c379a000000000000000000000000000000000000000000000000000000000815260040161026a90611fa4565b60405180910390fd5b60008451116102b7576040517f08c379a00000000000000000000000000000000000000000000000000000000081526004016102ae906120a4565b60405180910390fd5b61012c845111156102fd576040517f08c379a00000000000000000000000000000000000000000000000000000000081526004016102f490611f64565b60405180910390fd5b6000835111610341576040517f08c379a000000000000000000000000000000000000000000000000000000000815260040161033890611f44565b60405180910390fd5b61012c83511115610387576040517f08c379a000000000000000000000000000000000000000000000000000000000815260040161037e90611fe4565b60405180910390fd5b60008251116103cb576040517f08c379a00000000000000000000000000000000000000000000000000000000081526004016103c290612024565b60405180910390fd5b600a82511115610410576040517f08c379a000000000000000000000000000000000000000000000000000000000815260040161040790611f84565b60405180910390fd5b6000815111610454576040517f08c379a000000000000000000000000000000000000000000000000000000000815260040161044b90611fc4565b60405180910390fd5b61012c8151111561049a576040517f08c379a000000000000000000000000000000000000000000000000000000000815260040161049190612044565b60405180910390fd5b60006040518060c001604052803373ffffffffffffffffffffffffffffffffffffffff168152602001878152602001868152602001858152602001848152602001838152509050600081908060018154018082558091505060019003906000526020600020906006020160009091909190915060008201518160000160006101000a81548173ffffffffffffffffffffffffffffffffffffffff021916908373ffffffffffffffffffffffffffffffffffffffff1602179055506020820151816001019080519060200190610570929190611583565b50604082015181600201908051906020019061058d929190611583565b5060608201518160030190805190602001906105aa929190611583565b5060808201518160040190805190602001906105c7929190611583565b5060a08201518160050190805190602001906105e4929190611583565b505050505050505050565b6002818051602081018201805184825260208301602085012081835280955050505050506000915090508060000160009054906101000a900473ffffffffffffffffffffffffffffffffffffffff169080600101805461064e90612240565b80601f016020809104026020016040519081016040528092919081815260200182805461067a90612240565b80156106c75780601f1061069c576101008083540402835291602001916106c7565b820191906000526020600020905b8154815290600101906020018083116106aa57829003601f168201915b5050505050908060020180546106dc90612240565b80601f016020809104026020016040519081016040528092919081815260200182805461070890612240565b80156107555780601f1061072a57610100808354040283529160200191610755565b820191906000526020600020905b81548152906001019060200180831161073857829003601f168201915b50505050509080600301805461076a90612240565b80601f016020809104026020016040519081016040528092919081815260200182805461079690612240565b80156107e35780601f106107b8576101008083540402835291602001916107e3565b820191906000526020600020905b8154815290600101906020018083116107c657829003601f168201915b5050505050908060040180546107f890612240565b80601f016020809104026020016040519081016040528092919081815260200182805461082490612240565b80156108715780601f1061084657610100808354040283529160200191610871565b820191906000526020600020905b81548152906001019060200180831161085457829003601f168201915b5050505050905085565b610883611609565b6002600160008473ffffffffffffffffffffffffffffffffffffffff1673ffffffffffffffffffffffffffffffffffffffff1681526020019081526020016000206040516108d19190611df6565b90815260200160405180910390206040518060a00160405290816000820160009054906101000a900473ffffffffffffffffffffffffffffffffffffffff1673ffffffffffffffffffffffffffffffffffffffff1673ffffffffffffffffffffffffffffffffffffffff16815260200160018201805461095090612240565b80601f016020809104026020016040519081016040528092919081815260200182805461097c90612240565b80156109c95780601f1061099e576101008083540402835291602001916109c9565b820191906000526020600020905b8154815290600101906020018083116109ac57829003601f168201915b505050505081526020016002820180546109e290612240565b80601f0160208091040260200160405190810160405280929190818152602001828054610a0e90612240565b8015610a5b5780601f10610a3057610100808354040283529160200191610a5b565b820191906000526020600020905b815481529060010190602001808311610a3e57829003601f168201915b50505050508152602001600382018054610a7490612240565b80601f0160208091040260200160405190810160405280929190818152602001828054610aa090612240565b8015610aed5780601f10610ac257610100808354040283529160200191610aed565b820191906000526020600020905b815481529060010190602001808311610ad057829003601f168201915b50505050508152602001600482018054610b0690612240565b80601f0160208091040260200160405190810160405280929190818152602001828054610b3290612240565b8015610b7f5780601f10610b5457610100808354040283529160200191610b7f565b820191906000526020600020905b815481529060010190602001808311610b6257829003601f168201915b5050505050815250509050919050565b60606000805480602002602001604051908101604052809291908181526020016000905b82821015610f1557838290600052602060002090600602016040518060c00160405290816000820160009054906101000a900473ffffffffffffffffffffffffffffffffffffffff1673ffffffffffffffffffffffffffffffffffffffff1673ffffffffffffffffffffffffffffffffffffffff168152602001600182018054610c3c90612240565b80601f0160208091040260200160405190810160405280929190818152602001828054610c6890612240565b8015610cb55780601f10610c8a57610100808354040283529160200191610cb5565b820191906000526020600020905b815481529060010190602001808311610c9857829003601f168201915b50505050508152602001600282018054610cce90612240565b80601f0160208091040260200160405190810160405280929190818152602001828054610cfa90612240565b8015610d475780601f10610d1c57610100808354040283529160200191610d47565b820191906000526020600020905b815481529060010190602001808311610d2a57829003601f168201915b50505050508152602001600382018054610d6090612240565b80601f0160208091040260200160405190810160405280929190818152602001828054610d8c90612240565b8015610dd95780601f10610dae57610100808354040283529160200191610dd9565b820191906000526020600020905b815481529060010190602001808311610dbc57829003601f168201915b50505050508152602001600482018054610df290612240565b80601f0160208091040260200160405190810160405280929190818152602001828054610e1e90612240565b8015610e6b5780601f10610e4057610100808354040283529160200191610e6b565b820191906000526020600020905b815481529060010190602001808311610e4e57829003601f168201915b50505050508152602001600582018054610e8490612240565b80601f0160208091040260200160405190810160405280929190818152602001828054610eb090612240565b8015610efd5780601f10610ed257610100808354040283529160200191610efd565b820191906000526020600020905b815481529060010190602001808311610ee057829003601f168201915b50505050508152505081526020019060010190610bb3565b50505050905090565b60008181548110610f2e57600080fd5b90600052602060002090600602016000915090508060000160009054906101000a900473ffffffffffffffffffffffffffffffffffffffff1690806001018054610f7790612240565b80601f0160208091040260200160405190810160405280929190818152602001828054610fa390612240565b8015610ff05780601f10610fc557610100808354040283529160200191610ff0565b820191906000526020600020905b815481529060010190602001808311610fd357829003601f168201915b50505050509080600201805461100590612240565b80601f016020809104026020016040519081016040528092919081815260200182805461103190612240565b801561107e5780601f106110535761010080835404028352916020019161107e565b820191906000526020600020905b81548152906001019060200180831161106157829003601f168201915b50505050509080600301805461109390612240565b80601f01602080910402602001604051908101604052809291908181526020018280546110bf90612240565b801561110c5780601f106110e15761010080835404028352916020019161110c565b820191906000526020600020905b8154815290600101906020018083116110ef57829003601f168201915b50505050509080600401805461112190612240565b80601f016020809104026020016040519081016040528092919081815260200182805461114d90612240565b801561119a5780601f1061116f5761010080835404028352916020019161119a565b820191906000526020600020905b81548152906001019060200180831161117d57829003601f168201915b5050505050908060050180546111af90612240565b80601f01602080910402602001604051908101604052809291908181526020018280546111db90612240565b80156112285780601f106111fd57610100808354040283529160200191611228565b820191906000526020600020905b81548152906001019060200180831161120b57829003601f168201915b5050505050905086565b6001602052806000526040600020600091509050805461125190612240565b80601f016020809104026020016040519081016040528092919081815260200182805461127d90612240565b80156112ca5780601f1061129f576101008083540402835291602001916112ca565b820191906000526020600020905b8154815290600101906020018083116112ad57829003601f168201915b505050505081565b6000600160003373ffffffffffffffffffffffffffffffffffffffff1673ffffffffffffffffffffffffffffffffffffffff168152602001908152602001600020805461131e90612240565b905014611360576040517f08c379a000000000000000000000000000000000000000000000000000000000815260040161135790612004565b60405180910390fd5b600073ffffffffffffffffffffffffffffffffffffffff166002856040516113889190611ddf565b908152602001604051809103902060000160009054906101000a900473ffffffffffffffffffffffffffffffffffffffff1673ffffffffffffffffffffffffffffffffffffffff1614611410576040517f08c379a000000000000000000000000000000000000000000000000000000000815260040161140790612084565b60405180910390fd5b6040518060a001604052803373ffffffffffffffffffffffffffffffffffffffff1681526020018481526020018581526020018381526020018281525060028560405161145d9190611ddf565b908152602001604051809103902060008201518160000160006101000a81548173ffffffffffffffffffffffffffffffffffffffff021916908373ffffffffffffffffffffffffffffffffffffffff16021790555060208201518160010190805190602001906114ce929190611583565b5060408201518160020190805190602001906114eb929190611583565b506060820151816003019080519060200190611508929190611583565b506080820151816004019080519060200190611525929190611583565b5090505083600160003373ffffffffffffffffffffffffffffffffffffffff1673ffffffffffffffffffffffffffffffffffffffff168152602001908152602001600020908051906020019061157c929190611583565b5050505050565b82805461158f90612240565b90600052602060002090601f0160209004810192826115b157600085556115f8565b82601f106115ca57805160ff19168380011785556115f8565b828001600101855582156115f8579182015b828111156115f75782518255916020019190600101906115dc565b5b509050611605919061164e565b5090565b6040518060a00160405280600073ffffffffffffffffffffffffffffffffffffffff168152602001606081526020016060815260200160608152602001606081525090565b5b8082111561166757600081600090555060010161164f565b5090565b600061167e6116798461210b565b6120e6565b90508281526020810184848401111561169657600080fd5b6116a18482856121fe565b509392505050565b6000813590506116b881612654565b92915050565b600082601f8301126116cf57600080fd5b81356116df84826020860161166b565b91505092915050565b6000813590506116f78161266b565b92915050565b60006020828403121561170f57600080fd5b600061171d848285016116a9565b91505092915050565b60006020828403121561173857600080fd5b600082013567ffffffffffffffff81111561175257600080fd5b61175e848285016116be565b91505092915050565b6000806000806080858703121561177d57600080fd5b600085013567ffffffffffffffff81111561179757600080fd5b6117a3878288016116be565b945050602085013567ffffffffffffffff8111156117c057600080fd5b6117cc878288016116be565b935050604085013567ffffffffffffffff8111156117e957600080fd5b6117f5878288016116be565b925050606085013567ffffffffffffffff81111561181257600080fd5b61181e878288016116be565b91505092959194509250565b600080600080600060a0868803121561184257600080fd5b600086013567ffffffffffffffff81111561185c57600080fd5b611868888289016116be565b955050602086013567ffffffffffffffff81111561188557600080fd5b611891888289016116be565b945050604086013567ffffffffffffffff8111156118ae57600080fd5b6118ba888289016116be565b935050606086013567ffffffffffffffff8111156118d757600080fd5b6118e3888289016116be565b925050608086013567ffffffffffffffff81111561190057600080fd5b61190c888289016116be565b9150509295509295909350565b60006020828403121561192b57600080fd5b6000611939848285016116e8565b91505092915050565b600061194e8383611caf565b905092915050565b61195f816121c2565b82525050565b61196e816121c2565b82525050565b600061197f82612161565b6119898185612184565b93508360208202850161199b8561213c565b8060005b858110156119d757848403895281516119b88582611942565b94506119c383612177565b925060208a0199505060018101905061199f565b50829750879550505050505092915050565b60006119f48261216c565b6119fe8185612195565b9350611a0e81856020860161220d565b611a1781612301565b840191505092915050565b6000611a2d8261216c565b611a3781856121a6565b9350611a4781856020860161220d565b611a5081612301565b840191505092915050565b6000611a668261216c565b611a7081856121b7565b9350611a8081856020860161220d565b80840191505092915050565b60008154611a9981612240565b611aa381866121b7565b94506001821660008114611abe5760018114611acf57611b02565b60ff19831686528186019350611b02565b611ad88561214c565b60005b83811015611afa57815481890152600182019150602081019050611adb565b838801955050505b50505092915050565b6000611b186027836121a6565b9150611b2382612312565b604082019050919050565b6000611b3b6017836121a6565b9150611b4682612361565b602082019050919050565b6000611b5e6031836121a6565b9150611b698261238a565b604082019050919050565b6000611b816020836121a6565b9150611b8c826123d9565b602082019050919050565b6000611ba46024836121a6565b9150611baf82612402565b604082019050919050565b6000611bc76024836121a6565b9150611bd282612451565b604082019050919050565b6000611bea6013836121a6565b9150611bf5826124a0565b602082019050919050565b6000611c0d6029836121a6565b9150611c18826124c9565b604082019050919050565b6000611c306021836121a6565b9150611c3b82612518565b604082019050919050565b6000611c536029836121a6565b9150611c5e82612567565b604082019050919050565b6000611c76602a836121a6565b9150611c81826125b6565b604082019050919050565b6000611c996024836121a6565b9150611ca482612605565b604082019050919050565b600060c083016000830151611cc76000860182611956565b5060208301518482036020860152611cdf82826119e9565b91505060408301518482036040860152611cf982826119e9565b91505060608301518482036060860152611d1382826119e9565b91505060808301518482036080860152611d2d82826119e9565b91505060a083015184820360a0860152611d4782826119e9565b9150508091505092915050565b600060a083016000830151611d6c6000860182611956565b5060208301518482036020860152611d8482826119e9565b91505060408301518482036040860152611d9e82826119e9565b91505060608301518482036060860152611db882826119e9565b91505060808301518482036080860152611dd282826119e9565b9150508091505092915050565b6000611deb8284611a5b565b915081905092915050565b6000611e028284611a8c565b915081905092915050565b600060a082019050611e226000830188611965565b8181036020830152611e348187611a22565b90508181036040830152611e488186611a22565b90508181036060830152611e5c8185611a22565b90508181036080830152611e708184611a22565b90509695505050505050565b600060c082019050611e916000830189611965565b8181036020830152611ea38188611a22565b90508181036040830152611eb78187611a22565b90508181036060830152611ecb8186611a22565b90508181036080830152611edf8185611a22565b905081810360a0830152611ef38184611a22565b9050979650505050505050565b60006020820190508181036000830152611f1a8184611974565b905092915050565b60006020820190508181036000830152611f3c8184611a22565b905092915050565b60006020820190508181036000830152611f5d81611b0b565b9050919050565b60006020820190508181036000830152611f7d81611b2e565b9050919050565b60006020820190508181036000830152611f9d81611b51565b9050919050565b60006020820190508181036000830152611fbd81611b74565b9050919050565b60006020820190508181036000830152611fdd81611b97565b9050919050565b60006020820190508181036000830152611ffd81611bba565b9050919050565b6000602082019050818103600083015261201d81611bdd565b9050919050565b6000602082019050818103600083015261203d81611c00565b9050919050565b6000602082019050818103600083015261205d81611c23565b9050919050565b6000602082019050818103600083015261207d81611c46565b9050919050565b6000602082019050818103600083015261209d81611c69565b9050919050565b600060208201905081810360008301526120bd81611c8c565b9050919050565b600060208201905081810360008301526120de8184611d54565b905092915050565b60006120f0612101565b90506120fc8282612272565b919050565b6000604051905090565b600067ffffffffffffffff821115612126576121256122d2565b5b61212f82612301565b9050602081019050919050565b6000819050602082019050919050565b60008190508160005260206000209050919050565b600081519050919050565b600081519050919050565b6000602082019050919050565b600082825260208201905092915050565b600082825260208201905092915050565b600082825260208201905092915050565b600081905092915050565b60006121cd826121d4565b9050919050565b600073ffffffffffffffffffffffffffffffffffffffff82169050919050565b6000819050919050565b82818337600083830152505050565b60005b8381101561222b578082015181840152602081019050612210565b8381111561223a576000848401525b50505050565b6000600282049050600182168061225857607f821691505b6020821081141561226c5761226b6122a3565b5b50919050565b61227b82612301565b810181811067ffffffffffffffff8211171561229a576122996122d2565b5b80604052505050565b7f4e487b7100000000000000000000000000000000000000000000000000000000600052602260045260246000fd5b7f4e487b7100000000000000000000000000000000000000000000000000000000600052604160045260246000fd5b6000601f19601f8301169050919050565b7f596f75206d757374207772697465207468652074726561746d656e742073756760008201527f6765737465642e00000000000000000000000000000000000000000000000000602082015250565b7f546865207265706f727420697320746f6f206c6f6e672e000000000000000000600082015250565b7f5468652070686f6e65206e756d626572206d757374206e6f74206265206d6f7260008201527f65207468616e203130206469676974732e000000000000000000000000000000602082015250565b7f596f75206d757374207772697465207468652070617469656e74206e616d652e600082015250565b7f596f75206d757374207772697465207468652070617469656e7473206164647260008201527f6573732e00000000000000000000000000000000000000000000000000000000602082015250565b7f5468652054726561746d656e742073756767657374656420697320746f6f206c60008201527f6f6e672e00000000000000000000000000000000000000000000000000000000602082015250565b7f5573657220616c72656164792065786973747300000000000000000000000000600082015250565b7f596f75206d757374207772697465207468652070617469656e74732070686f6e60008201527f65206e756d6265722e0000000000000000000000000000000000000000000000602082015250565b7f5468652050617469656e7473206164647265737320697320746f6f206c6f6e6760008201527f2e00000000000000000000000000000000000000000000000000000000000000602082015250565b7f596f75206d757374207369676e20757020746f20706f73742050617469656e7460008201527f2064657461696c732e0000000000000000000000000000000000000000000000602082015250565b7f557365726e616d652069732074616b656e2c20706c656173652074727920616e60008201527f6f74686572206f6e652e00000000000000000000000000000000000000000000602082015250565b7f596f75206d75737420777269746520746865206469736561736520616e616c7960008201527f7369732e00000000000000000000000000000000000000000000000000000000602082015250565b61265d816121c2565b811461266857600080fd5b50565b612674816121f4565b811461267f57600080fd5b5056fea26469706673582212203baa668c7540a017a6592224853e7e1b0a6fb4025c203b44c9c82cdce1a01fa064736f6c63430008040033",
  "linkReferences": {},
  "deployedLinkReferences": {}
}